:020000040800F2
:1000000000040020BD020008F9500008BF020008EB
:10001000BF020008BF020008BF020008BF020008BC
:10002000BF020008BF020008BF0200083D8C0008A4
:10003000BF020008BF020008BF020008BF0200089C
:10004000BF020008BF02000881A90008DDA900085E
:10005000BF020008BF020008759B00089D9B0008B6
:10006000C59B0008ED9B0008159C000801A1000835
:1000700015A1000829A100083DA1000851A1000810
:1000800065A1000879A10008BF020008BF020008AE
:10009000BF020008BF020008BF0200083D9C000824
:1000A000BF020008BF020008BF020008BF0200082C
:1000B000259D0008BF020008BF020008D5A4000863
:1000C000D9A50008BF020008BF020008BF0200084F
:1000D000BF020008BF020008119D0008BF0200080F
:1000E000A19C000815AA0008BF020008BF02000872
:1000F000BF020008BF020008BF020008BF020008DC
:10010000BF020008BF020008BF020008BF020008CB
:10011000BF020008BF020008BF020008BF020008BB
:100120008DA10008A1A10008B5A10008C9A100087F
:10013000DDA10008BF020008BF020008BF020008DE
:10014000BF020008BF020008BF02000855AF000848
:10015000F1A1000805A20008BF020008BF020008C4
:10016000BF020008BF020008BF020008BF0200086B
:10017000BF020008BF020008BF020008BF0200085B
:10018000BF020008BF020008BF020008BF0200084B
:10019000BF020008BF020008BF020008BF0200083B
:1001A00072B6374880F30888364880F309883648A5
:1001B0003649086040F20000CCF200004EF634717F
:1001C000CEF200010860BFF34F8FBFF36F8F40F294
:1001D0000000C0F2F0004EF68851CEF20001086037
:1001E000BFF34F8FBFF36F8F4FF00000E1EE100AA7
:1001F0004EF63C71CEF200010860062080F31488B0
:10020000BFF36F8F08F0EAF907F0C0FF4FF05530E9
:100210001F491B4A91423CBF41F8040BFAE71D49B4
:10022000184A91423CBF41F8040BFAE71A491B4AAD
:100230001B4B9A423EBF51F8040B42F8040BF8E7FF
:1002400000201849184A91423CBF41F8040BFAE7D4
:1002500008F0C8F908F0C3F9144C154DAC4203DAA4
:1002600054F8041B8847F9E704F05DFA114C124D6D
:10027000AC4203DA54F8041B8847F9E708F0B0B938
:1002800000040020000C00200000000808ED00E041
:1002900000000020000400202CD40008000C0020E6
:1002A0001410002018100020306A0020A00100085F
:1002B000A0010008A0010008A001000870E700F0FC
:1002C00000F8FEE72DE9F04F2DED108AC1F80CD0B3
:1002D000C3689D46BDEC108ABDE8F08F002383F310
:1002E00011882846A047002008F028FCFEE708F007
:1002F00081FB00DFFEE7000053B94AB9002908BFBF
:1003000000281CBF4FF0FF314FF0FF3000F00CB859
:10031000ADF1080C6DE904CE0BF054F9DDF804E002
:10032000DDE9022304B07047704700BF034613F8AD
:10033000012B002AFBD1181A013870470000000079
:1003400001F0FF01102A2BDB10F0070F08D010F886
:10035000013B013A8B422DD010F0070F42B3F6D18A
:10036000F0B441EA012141EA014122F007047FF0A3
:1003700000070023F0E80256083C85EA010586EAFA
:10038000010685FA47F5A3FA87F586FA47F6A5FA36
:1003900087F68EB9EED1F0BC01F0FF0102F0070242
:1003A00032B110F8013B013A83EA010313B1F8D1ED
:1003B0000020704701387047002D06BF35460338CE
:1003C000073815F0010F07D1013015F4807F02BF07
:1003D000013015F4C03F0130F0BC0138704700BF58
:1003E000013880B24FF6FF7300BF013880B29842E7
:1003F000FAD17047F8B50225124E024610214FF08F
:1004000090442F4612F4004F4FF4004367834FF09F
:10041000010014BF33837383FFF7E2FF01392583A3
:100420000120FFF7DDFF520011F0FF0192B2E9D188
:1004300001220120FFF7D4FF62831046FFF7D0FFAF
:100440002283F8BD0008004838B5302383F31188B3
:10045000012200F00F0402FA04F420F00F052146F7
:100460002846A4B209F022FF6C83002383F311888D
:1004700038BD08B5302383F31188012100F00F0344
:100480009940202220F00F0009F010FF002383F391
:10049000118808BD08B5054B1868431C01D0FFF74B
:1004A000D3FFBDE808400020FFF7A4BF000C0020E8
:1004B000F8B5234E05460C4656F8210069BB431C8F
:1004C0003DD0FFF7C1FF6420FFF78AFF0120A04065
:1004D000DFF870C0291F6FEA000E14355CF8042B9A
:1004E00051F8043F571C20D022F00F0702F00F02F2
:1004F0003F6927FA02F2D20717D403438D420B60FB
:10050000ECD156F824009CB9431C01D0FFF7B1FF91
:10051000BDE8F8406420FFF763BF4B1E0120984000
:10052000C04380B2FFF766FFCDE70EEA0303E5E7BD
:100530000F2CEDD94FF6FF70FFF75CFFE8E7F8BD31
:10054000000C0020440C002038B5154D002455F84F
:10055000040B421C01D0FFF78CFF0134E4B2062CDF
:10056000F5D1104801224FF4004109F09FFE01220D
:1005700011464FF0904009F099FE4FF09040012253
:10058000022109F093FE084B1868431C01D0FFF7C5
:1005900070FFBDE838404FF6FF70FFF72BBF00BF7C
:1005A000440C002000080048000C002030B587B043
:1005B00004461822002168460BF0B8F90025E9B27C
:1005C00068460135FFF774FF112DF8D118226946EE
:1005D00020460BF09BF9002814BF0125002504D00C
:1005E0001822694620460BF0EDF9284607B030BDC9
:1005F000034B1B78032B06BF024B18780020704773
:10060000191000201A10002008B5202204480021EB
:100610000BF08CF9034A00231370034A137008BDD2
:1006200081210020A12100208021002037B50D4D1F
:100630000D4AADF8040028781378441C04F00F0428
:10064000A34202BF631C03F00F031370074B022287
:1006500001A903EB40000BF0B5F901202C7003B0A9
:1006600030BD00BFA1210020802100208121002079
:1006700008B50F4B01221A70FFF7C6FF00F052FABF
:1006800000F05CFF202240214FF0904009F00EFE68
:1006900001F070FB02F0F2F803F068FC054B1880E3
:1006A000054B1A78C0F3C01060F341021A7008BD00
:1006B00019100020DE6500208110002038B50446A6
:1006C0000D4601F097FD50B9054B9B6813B12946C3
:1006D00020469847034B04221A70034B1C7038BD08
:1006E000700C0020191000201B10002010B501F024
:1006F00081FD044650B907F0C1F938B1044B2146D9
:100700005B6820469847034B05221A7010BD00BF56
:10071000700C00201910002030B5304B1B78042BD2
:100720008BB0054604D12E4B1B781BB90BB030BDE6
:10073000032B4BD12B4B2C4C1B784BB32B4B93F9EE
:100740000030002B24DA6369002BEFD000F040FA70
:10075000A0B900240223202229460DF106008DF8BD
:1007600004300BF02FF901A800F0FAF9002CDDD0CD
:10077000002000F05DFA00F061FAD7E700F03CFAE3
:100780000028E6D000F04EFAB0FA80F46409E1E700
:100790002369002BCAD000F01BFA50B100F02CFAEC
:1007A00038B12369284698470BB0BDE8304000F0C7
:1007B0001BBA0123202229460DF106008DF80430D2
:1007C0000BF000F901A800F0CBF9AFE7002BADD09A
:1007D0000BB0BDE83040FFF789BF00BF1910002003
:1007E000181000206C0C0020700C0020DE6500202A
:1007F000054B1B78032B03D1044B1B6A1BB1184715
:100800000BB1FFF773BF704719100020700C002068
:1008100070B504460D4601F0EDFC98B90A4E54B18E
:100820000A4B1A78A24202D13278032A0AD01C70ED
:10083000074B00221A70074B29465B6820469847F1
:100840000523337070BD00BF191000201B1000205D
:100850001A100020700C0020024BDB6803B118470F
:10086000704700BF700C002070477047704770479A
:1008700070477047054B1B78032B03D1044BDB6992
:100880001BB118470BB1FFF731BF7047191000209B
:10089000700C002010B5134B1B78032B8AB0044654
:1008A00019D100F095F960B100F0A6F948B10E4BEE
:1008B0009B690BB1204698470AB0BDE8104000F094
:1008C00093B9032301A88DF80430ADF8064000F079
:1008D00047F90AB010BD002BFBD00AB0BDE81040AC
:1008E000FFF704BF19100020700C00200378032BC1
:1008F00005D14378807843EA0020FFF7BBBF042B83
:1009000005D14378807843EA0020FFF7C3BF7047E2
:1009100008B5002000F088FE02F010FE03F06CFA2B
:10092000BDE80840FFF798BFF8B5574E574D3078EF
:100930002B780021984240F0828001B12870F8BDE8
:100940002B70534B002220461A70FFF78DFFEEE705
:100950002B704F4B03202146187001F003F84D4BCC
:100960001C7002F0EBFD4C4B4C4A1B781178C3F322
:10097000400363F3C71120461170FFF778FF01F0C1
:100980002FFC0028D3D0012000F04EFECFE72B70C3
:100990003F4B04202146187000F0E4FF2046FFF78B
:1009A00064FFC4E72B703A4B05202146187000F015
:1009B000D9FF2046FFF75AFFB9E72B70384B0022CA
:1009C0001A70334B1A780220032A18700FD101F0E5
:1009D000C3F92146062000F0C5FF00F0A3F8314B13
:1009E000002720461F7002F0C3F83846CCE72146A6
:1009F000F1E72B70294B1A786FF3C7121A702A4B44
:100A000001221A70FFF734FF91E7244A2B70137804
:100A100043F080031370244B00221A70FFF729FF64
:100A200085E72B701E4B1C7081E72B701F4B00223B
:100A30001A707CE720462B7000F0EEF877E71C492F
:100A400011F8132001EB4301013A01334C7803F014
:100A50000F030121092A3FF66DAF01A757F822F0D5
:100A6000410900088F090008A5090008510900087C
:100A7000BB090008F30900080B0A00082B0A00084C
:100A8000230A0008350A0008A12100208021002047
:100A9000191000201B10002081100020DE650020AE
:100AA0001A1000201C100020181000206C0C0020D0
:100AB0008121002008B5074B5B6A9847FFF734FF98
:100AC00000F0BCF801F018F801F0E0FBBDE80840C8
:100AD00001F070B9700C0020014B1878704700BF0E
:100AE0001910002038B505460C4602F0FDF8A8B1F3
:100AF00001F00CF902280DD101F02EF901F070FB84
:100B000040B1074B1B78032B04D1A37813B101200C
:100B100000F08AFD2146284601F000FF38BD00BFE5
:100B20001910002008B54FF48842002107480AF048
:100B3000FDFE074A00231380064A1380064A1370FD
:100B400006F09CFF054B186008BD00BFC8210020BF
:100B5000C6210020A22100201C100020241000200B
:100B600038B50A4D0A4A2B8812885C1CC4F3080465
:100B7000A242014608D00748222202FB03000AF0E5
:100B800021FF2C80012038BD0020FCE7C621002079
:100B9000A2210020C821002038B50A4D0A4B2C881C
:100BA0001B88A3420BD00949222202FB0411013405
:100BB000C4F308040AF006FF2C80012038BD002091
:100BC000FCE700BFA2210020C6210020C821002090
:100BD000034B1888034B1B88C31A5842584170476F
:100BE000C6210020A221002008B506F047FF014BD6
:100BF000186008BD2410002008B5054B186806F0E1
:100C00007FFF044B1B78984294BF0020012008BD51
:100C1000241000206D0C0020014B1870704700BF9D
:100C20006D0C0020014B1878704700BF1C1000208D
:100C3000014B1870704700BF1C10002038B5FFF73B
:100C40004BFF03284AD1FFF7C3FF18B1244B1B7891
:100C5000002B43D0FFF7D0FF00283FD0204C237853
:100C60005BBB204D2846FFF797FF002836D02B7836
:100C7000002B33D006F002FF02282FD91E23237049
:100C800006F0FCFE174C184B18602378022B1DD180
:100C9000164B5B694BB1E01C98472378032B04D1BA
:100CA000124B9B690BB16088984706F0E7FE104B2A
:100CB0001860BDE8384001F04FB80B4B186806F0DB
:100CC0001FFF07280AD92378013BD8E7012BE4D17D
:100CD000064B1B69002BE8D0A01CDDE738BD00BF28
:100CE0001C100020A421002020100020700C0020E7
:100CF000241000201FB500234FF4E122CDE900238A
:100D0000CDE9023340B108F09BFB1248694608F078
:100D1000A3FB05B05DF804FB69460E4808F09CFB98
:100D200040F2823204214FF0904009F0BFFA40F2C5
:100D3000823208214FF0904009F0B8FA01222021B8
:100D40004FF0904009F0B2FA4FF0904320221A83FE
:100D5000DFE700BF486900202DE9F04F91B005465C
:100D60000C46924600211F463C2201A80091384EB5
:100D70000AF0DCFD17B933780133337033780BB9DF
:100D8000012333700027B9464FF0904317F0010F4D
:100D90004FF0200214BF1A835A83302383F3118843
:100DA00007F0BFFF804689F31188DFF8B4B007F081
:100DB000B8FF2849284AA0EB0800DC46CE46E0FBF5
:100DC00001CE002371466046FFF796FAB0F57A7FB0
:100DD000EDD30137032FD7D14FF0904320221A8350
:100DE00029192B4600278B422DD1AA238DF80030DC
:100DF0000AF155038DF80130A31C8DF80230C4F1BF
:100E0000FD038DF80330224633788DF804302946EF
:100E10000DF105000AF0D6FD10AA631D52FA83F306
:100E2000694603F8407CA31D52FA83F33F0AE21D92
:100E300003F8407CD2B24FF0FF33084808F060FA64
:100E400011B0BDE8F08F13F8012B3A4497B2CAE70E
:100E50002A10002040420F00A0860100786900207F
:100E60009F8601000B4B70B53F22044600211846B7
:100E70000AF05CFD1122451E214600F8012C0822D3
:100E80000AF0A0FD28460023BDE870400122092198
:100E9000FFF762BF2C1000200B4B70B53F220446B9
:100EA000002118460AF042FD1222451E214600F894
:100EB000012C14220AF086FD28460023BDE870406C
:100EC00001221521FFF748BF2C1000200C4B10B554
:100ED0003D220446002118460AF028FD034613224D
:100EE00000F8024C240A03F8032C00F8014C0338E4
:100EF000BDE81040002301220721FFF72DBF00BFEE
:100F00002E100020C0B2822810B512D1094B3E220B
:100F1000002118460AF00AFD03461422023803F89D
:100F2000022C01224270BDE8104000230221FFF78D
:100F300013BF10BD2D100020114B10B53F220446E9
:100F4000002118460AF0F2FC162300F8013C6378F1
:100F500000F80139A378837043F3C013C370E378BA
:100F6000037143F3C0134371237983716379C371B0
:100F70000023BDE810401A460821FFF7EDBE00BF70
:100F80002C1000207FB506460C463E220021194851
:100F9000194D0AF0CBFC194A6E7007CA01AB83E801
:100FA0000700002C08BF1C4621232B706388AB7000
:100FB0006388A6681B0AEB7023792B7163796B71C8
:100FC000A379AB71A6B13046FFF7B0F931460246BE
:100FD000E81D0AF0F7FCA068FFF7A8F9C11DC9B227
:100FE00005480023012204B0BDE87040FFF7B4BEFD
:100FF0000721F5E72D1000202B10002040C7000826
:101000000D4B70B53C2205460C46184600210AF0EF
:101010008DFC0346222200F8024C240A03F8042C1B
:1010200000F8035C00F8014C0438BDE87040002370
:1010300001220421FFF790BE2F10002010B5084CAC
:101040003F22002120460AF071FC232304F8013CD2
:10105000601E0023BDE8104001220221FFF77CBE84
:101060002C10002010B5084C3F22002120460AF029
:101070005DFCA42304F8013C0023601E1A46BDE871
:1010800010400121FFF768BE2C1000200D4B70B5F9
:101090003D2204460D46184600210AF047FC03464F
:1010A000252203F8032C084B00F8024C1C7000F8B2
:1010B000015C00230338BDE870401A460321FFF7A6
:1010C0004BBE00BF2E100020980C00200B4B70B5BB
:1010D0003F220446002118460AF028FC4122451E02
:1010E000214600F8012C16220AF06CFC2846002349
:1010F000BDE8704001221721FFF72EBE2C10002002
:1011000070B50546FFF712F90B4B04463F2218460F
:1011100000210AF00BFC4522294600F8012CE2B21E
:10112000461E0AF04FFC611C30460023BDE87040AB
:101130000122C9B2FFF710BE2C10002010B5084CD8
:101140003F22002120460AF0F1FB712304F8013C04
:101150000023601E1A46BDE810400121FFF7FCBDC8
:101160002C1000200A4B10B53E22044600211846E0
:101170000AF0DCFB0346722203F8022C00F8014C53
:1011800000230238BDE810401A460221FFF7E4BDF3
:101190002D1000200A4B10B53E22044600211846AF
:1011A0000AF0C4FB0346732203F8022C00F8014C3A
:1011B00000230238BDE810401A460321FFF7CCBDDA
:1011C0002D1000202DE9F0414FF0000888B01446A2
:1011D00006460D461C22414601A81F460AF0A6FB02
:1011E0004AF60323ADF8003057238DF8023022462B
:1011F000E34329460DF107008DF804308DF80340D4
:101200008DF805708DF806600AF0DCFB2021684639
:1012100006F08CFF192C14D91F2241460DF1010054
:101220000AF084FB032305F11901A4F119020DF161
:1012300001008DF800300AF0C5FB2021684606F059
:1012400075FF08B0BDE8F081F0B40378AA2B04461E
:101250003DD14278A2F15503012B38D8C17883786B
:10126000C943C9B28B4232D11B2B30D86FF0030C6B
:101270000530261D0025991EACEB040C0CEB06076F
:10128000B9421FDC0344EEB213F8027CB7421ED110
:1012900013F8013CB3EB152F19D10E4B25791E78AD
:1012A0006479AE4204F0F00416BF1D7001230023E0
:1012B000602C0CD1A2F1560462426241C9B2F0BC6A
:1012C000FFF74ABD16F8017F3D44ADB2D6E7F0BC4A
:1012D000704700BF291000202DE9F041904D914E3C
:1012E0002B788AB03BB9904F72693B789A423DD2D5
:1012F0000AB0BDE8F0817369042BF9D900211C22E2
:1013000003A802910AF012FB4FF0FF3106F10C0026
:1013100007F051FFAA2825D14FF0FF3106F10C004C
:1013200007F049FF57281DD102AF032406F10C082E
:101330004FF0FF31404607F03EFF013C14F0FF0440
:1013400007F8010BF4D19DF808209DF80910D3434C
:10135000DBB2994206D1744B2C701A70734B9DF816
:101360000A201A702B78002BC2D1BCE700241C2263
:10137000214603A802940AF0D9FADFF8BC813B7831
:10138000E6B2B3424CD8012200202A7002AC0246D9
:10139000991E814250DC2831694411F8200CD1B2E9
:1013A0008842A5D103F12801694411F8211CB1EB51
:1013B000122F9DD19DF80820D91E5C4BA13A1B78B5
:1013C000C9B2142A94D801A050F822F0451400089C
:1013D000D5140008FF140008F1120008F1120008EB
:1013E000F1120008F1120008F1120008F1120008D1
:1013F000F1120008F1120008F1120008F1120008C1
:10140000F1120008F11200088F140008F112000810
:10141000F1120008A5140008C91400080D150008F1
:101420000021404607F0C7FE06F128030DEB030636
:10143000013406F8200CA2E714F8015B2A4492B2AA
:101440000130A6E79DF80A30142B10D8102B10D9C4
:101450009DF80B00022811D0032814D000287FF437
:1014600047AFFFF7E5FB0320FFF7D6FB40E7162B5E
:10147000EED00DF1090001F09FFB39E70020FFF7E6
:10148000D7FB0820F0E70A20FFF7D2FB30E79DF8F2
:1014900009308DF8053001238DF804300198FFF7ED
:1014A000C5F825E7FFF7DEFD9DF80930203BDBB2EC
:1014B000052B3FF61DAF1E4AD35C9DF80B208DF81F
:1014C0000520002BE8D113E79DF809308DF8053091
:1014D0000923E1E79DF80B30002B7FF409AF9DF85D
:1014E0000A30252B7FF404AF124C2378052B03D14F
:1014F000BDF80C0001F096FBFF232370F8E60A46C6
:10150000A3200DF10901FFF75DFEF1E69DF809301A
:10151000012B7FF4EDAEBDF80A0001F083FBE7E696
:101520006F0C0020486900206E0C0020281000205D
:1015300067C70008980C0020546900202DE9F0418D
:101540001348144F132200210AF0F0F900254FF040
:10155000010857F8044B24F00F0604F00F0408FAB2
:1015600004F40135214601223046EDB208F09EFE1A
:10157000A4B2032D7483ECD1012210214FF09040CE
:1015800008F094FE4FF0904310225A83BDE8F0819A
:10159000CA65002070C7000808B505F0EBF918B956
:1015A000BDE8084005F0CABA08BD05F0D3B908B5D2
:1015B00005F0E0F9003818BF012008BD10B5074C50
:1015C00008221C21204603F037FD2378032B03D883
:1015D000BDE8104004F0FEB910BD00BF1066002049
:1015E000054B1B682BB9054B987B003818BF0120B1
:1015F00070470120704700BF70100020CA650020AE
:1016000008B5084B00229A73FFF7D8FFFFF7CFFF0A
:1016100018B1BDE80840FFF7BFBFBDE8084005F0BE
:1016200099B900BFCA65002010B578B10A4C23688B
:101630003BB906F023FA094B40F001001860206026
:1016400010BD06F01BFA40F00100F8E74FF09043A0
:1016500010225A83F4E700BF70100020741000209D
:1016600070B5114C2068F0B106F04AFAB0F57A7FF7
:1016700019D94FF090450D4E6B6983F010036B61E3
:1016800006F0FCF940F001002060306806F038FAFE
:1016900042F21073984206D92A69C2F30013D206A7
:1016A0005CBF2360336070BD741000207010002098
:1016B00070470000F8B500F0AFFE58B100F026FB0F
:1016C000022839D100F096FD30B1002211461046B3
:1016D00004F0EEFD0020F8BD01F00EF808B101F0B5
:1016E00013F8174EB47B3CB3737B164D04F00F0414
:1016F000ABB100221146104604F0DAFD96F90E3027
:101700002544002BACBF0023002215F8010CB9BF03
:10171000FF2311461A46194604F08EF9DAE70A4FFC
:101720003A789442EAD0A818194610F8010C1A46E3
:1017300004F082F93C70E1E7FFF7BAFFCAE700BFA7
:10174000CA6500207CC70008990C002070B502789B
:10175000804B814C052A18BF1A701B78A27B042B82
:1017600004D8DFE803F087031263A9007B4B002154
:101770001980002A40F0DB80002202F00F02A273E1
:10178000FFF798FF0023A37346E0002A44D0207C93
:10179000E17B41EA0021607C41EA0041A07C02F04B
:1017A0000F03013B51EA0061DBB20DD0022BE4D8FC
:1017B0006B4951F82310012321F00F0001F00F01B4
:1017C0008B409BB24383D8E762F07F02A17AA27379
:1017D000627A42EA0122E17A42EA0142217B52EA3C
:1017E00001621FBFC2F30721E2732174C2F30741F4
:1017F0001EBF120E6174A274022B43D8584A52F8CD
:101800002320012322F00F0102F00F0293409BB22C
:101810000B83A37B002B35D1FFF7D0FE05F0AAF890
:1018200000282FD1BDE8704005F094B8002AF3D00D
:10183000237CE17BA578607841EA0321637C41EA5F
:101840000341A37C51EA036140EA0520434D1AD1CC
:1018500062F07F02A27328802B88A27B002B88D0A5
:101860000B44C3F30721E3732174C3F307411B0E39
:101870006174A374002ACFD002F00F03013BDBB2E6
:10188000022B58D970BDA67A637A43EA0623E67A1A
:1018900043EA0643267B43EA066302F00F02181A66
:1018A000A2732880002BD7D09942D5D9002A3FF4C3
:1018B00063AF531EDBB279E7002AADD0110647BFF4
:1018C000A3796179A378617841EA0321234B48BF6A
:1018D00002F00F02198056BF62F07F02A273A2735A
:1018E000637AA27A207B43EA0223E27A43EA024344
:1018F00053EA0063A27B0CD0257CE07B40EA052004
:10190000657C40EA0540A57C40EA05608342FFF41F
:1019100030AF00293FF42DAF207CE37B43EA002366
:10192000607C43EA0043A07C43EA006398E702F04E
:101930000F03013BBEE712063FF560AF084A52F8BD
:101940002320012322F00F0102F00F0293409BB2EB
:101950004B8397E77C100020CA6500207E10002092
:1019600070C7000870B505460C4600F0CFF9022894
:1019700044D1564A1378A342554B13D11A78AA4240
:101980003CD01D7006F07AF8524B1860FFF704FE49
:1019900005F048F9AB1E042B2ED8DFE803F0114008
:1019A0005E738D00022D2AD11A78022A26D01D706E
:1019B00006F064F8474B1860FFF7EEFD05F032F9CA
:1019C000454B013C53F82420444C22F00F010123E5
:1019D00002F00F0293409BB24B83132240492046F2
:1019E00009F0F0FF2046FFF7B1FE00F003FC40B124
:1019F0004FF47A7005F010F93A4B1D7070BD1470F9
:101A0000BFE7A37A607A40EA0320E37A40EA034022
:101A1000237B50EA03604CD049F6404319E0314B38
:101A20002E4E1B78032B08D02F491322304609F085
:101A3000C9FF3046B473FFF789FEB37A707A40EA83
:101A40000320F37A40EA0340337B50EA036030D04E
:101A5000264B984238BF1846CCE7204E2449132223
:101A6000304609F0AFFF64F07F043046B473FFF7EF
:101A70006DFEB37A707A40EA0320F37A40EA0340BD
:101A8000337BC6E7154E1B491322304609F09AFFF7
:101A900064F07F043046B473FFF758FEB27A737A6D
:101AA00043EA0223F27A43EA0243327B53EA0260BA
:101AB000B1E74FF0FF309DE709490848132209F0CC
:101AC00081FF0648FFF742FE642093E76C10002078
:101AD0006B1000207810002070C70008CA65002035
:101AE0007FC7000880100020A5C70008C027090094
:101AF000B8C7000892C7000810B500F099FE0A4B5D
:101B00009B7B6BB1094C206805F0FAFF084B1B88E2
:101B1000984205D30748FFF719FE05F0AFFF206094
:101B2000BDE81040FFF79CBDCA650020781000207A
:101B30007E1000207C10002070B5054601F098F959
:101B40000446A0B1284601F095F904F013FF0546BC
:101B500068B9084E736998472A462946284604F012
:101B6000A7FBFFF7A5FDF368984733699847204620
:101B700070BD00BFECCC000808B5FFF799FD08BDAB
:101B800001207047704708B501F032F8FEF792FF68
:101B9000FFF7F8FF00F0BAF8012803D1BDE80840CC
:101BA00000F0BAB808BDFFF7EEBF000010B504465C
:101BB00088B070B105F0A2FD0E4B834218D01846D4
:101BC00005F096FDFEF748FE08B0BDE81040FEF7B0
:101BD0008DBDFFF715FDFEF77FFF032808D12022FA
:101BE0002146684609F0A2FE024B68465B689847AA
:101BF00008B010BD5C0C002000B5014689B050B1A2
:101C000005F07CFD0B4B834211D0184609B05DF8FE
:101C100004EB05F06DBD084B1B78042B07D1202287
:101C2000684609F083FE034B68465B68984709B035
:101C30005DF804FB900F0020A86900202DE9F8430F
:101C40002D4C2378834254D0207001F077FC20780B
:101C5000012828D0022839D0302383F3118807F0D7
:101C600060F80023054683F31188DFF89C80234E3B
:101C70004FF47A79002707F054F84446401B0021BE
:101C8000E0FB094132463B462046FEF735FB632820
:101C9000F1D904F02DFE4FF0FF3004F0BDFFBDE898
:101CA000F84304F0BFBFFFF7A7FF0020FFF77EFF58
:101CB00000F06CF8124913480B780278DC0964F3E1
:101CC0004102027062F3C7130B70C5E70120FFF7F2
:101CD0006DFF0020FFF790FF00F03EF8084909482B
:101CE0000B780278DC0964F300020270C2F3400250
:101CF000E8E7BDE8F88300BF9A0C0020A086010049
:101D0000DE650020811000209F860100014B1878BD
:101D1000704700BF9A0C002010B50E4C2378052B9D
:101D200017D12378052B07D04CF2503006F00BFF6B
:101D3000BDE8104002F060B805F06BFE05F050FE03
:101D40000028EED0034807F06BFC024806F078F953
:101D5000E7E710BDA869002008B5044B00221A70FF
:101D600005F08CFE024B186008BD00BF9C100020DF
:101D7000A010002008B504482022022108F096FA9D
:101D8000BDE80840FFF7E8BF00040048024A00230E
:101D90001370024A136070479C100020A0100020AE
:101DA000034B186980F00200C0F34000704700BF89
:101DB0000004004870B5134C26784EB9124D2868BF
:101DC00005F09EFEB0F57A7F82BF012323702E605E
:101DD000FFF79CFF022813D123788BB1FFF700FC9B
:101DE00070B904F031FF58B108490948182209F0C8
:101DF0008DFD28B900F040FA10B9052000F08CF8EC
:101E000070BD00BF9C100020A01000208410002096
:101E1000F8650020023807286DD8DFE800F0046C70
:101E20000F1C2B394C5E354B1B78002B63D1344A89
:101E3000136923F004031361012070472F4B1B78B3
:101E4000002B58D12E4A136943F0040313612D4B24
:101E50001A681A60F0E7294B1B78012B4BD8284AE7
:101E6000136943F004031361264A136843F0010326
:101E70001360E1E7214B1B78002B3CD1204A13690A
:101E800043F0040313611F4A136843F00203EFE7B2
:101E90001A4B1B78012B2ED8194A136943F00403FF
:101EA0001361184B1A6842F003021A609A6842F4F0
:101EB00080729A60C0E7114B1B78012B1BD8104A27
:101EC000136943F0040313610E4B1A6842F00302D6
:101ED0001A609A6822F48072EBE7084B1B78012B9A
:101EE00009D8074A136943F004031361054A1368CC
:101EF00043F00403BCE70020704700BFA41000209B
:101F000000ED00E000700040024A536843F4806333
:101F100053607047007000402DE9F041022886B000
:101F2000044600F202812046FFF774FF002800F00B
:101F30000181824807F0E9FA814A936D23F4004356
:101F40009365D2F8043823F48063C2F8043830274C
:101F500087F31188022206214FF0904008F028FAFA
:101F6000002585F3118887F3118876480322012123
:101F700008F01EFA85F31188734E0FCE6C460FC41D
:101F800096E803002E4684E803006C4654F8043BB0
:101F900001330CD087F3118854F8040C032200F0AD
:101FA0000F0120F00F0008F003FA86F311880135C5
:101FB000EDB2062DEAD1FEF76DFA40224FF48071A2
:101FC0004FF0904008F072F930BF302383F311884E
:101FD0005E4C6123236023689807FCD50023A3602F
:101FE000A36813F00C0FFBD169232360D4F894305D
:101FF00023F4706343F4C063C4F89430236843F45B
:102000008073236023685905FCD5514BE360236836
:1020100043F08073236023689A01FCD50023A360FA
:102020004C4A4D4BC4F88830136823F0070343F043
:1020300002031360136803F00703022BFAD1A368AD
:1020400043F00303A360A36803F00C030C2BFAD145
:10205000002383F31188414B1B680BB10120984783
:10206000302686F311883E4A136923F00403136176
:102070003C4B9A6942F01F029A619A6942F480725D
:102080009A6106F04CFE002705F0F6FC87F31188F4
:1020900000F06EF8DFF8D48058F8043B01330BD021
:1020A00086F3118858F8040C00F00F0120F00F009F
:1020B00008F0AEF987F31188013D15F0FF05EBD16B
:1020C000302686F3118806214FF0904008F0A0F9E1
:1020D00085F3118886F311881A48012108F098F9D0
:1020E00085F31188FFF75CFE70B1D4F8983043F0A7
:1020F0000103C4F89830D4F898309B07FBD50F48FB
:10210000FFF702FF05F09EFF05F09AF9012005F0A8
:1021100079F9FFF721FEFEF705FD02F0F1FA02F072
:102120008FFA114B00221A7004E0FFF739FE0028E5
:102130003FF4F9AE06B0BDE8F08100BFA869002009
:1021400000680040000400484CC70008001002402E
:10215000120C00010020024055550130700C002087
:1021600000ED00E000700040A4100020440C0020AE
:10217000704702210520FEF789BF0000014B18803F
:10218000704700BF9C0C0020144B1B8841F20402D6
:1021900093421FD840F6AC5293420CD9502253437D
:1021A000A3F58823A3F5B8634FF41672B3FBF2F0DE
:1021B0001430C0B2704740F6E44293420CD9142266
:1021C00002FB03F0A0F58030A0F5E870C823B0FB57
:1021D000F3F0EEE764207047002070479C0C00206D
:1021E000034B18780A2894BF00200120704700BFD5
:1021F000A7100020034B1878142894BF002001205A
:10220000704700BFA610002008B50B4B1A8840F697
:10221000AB539A420ED8094A13780A2B0AD80133D5
:10222000DBB20B2B137005D10120FFF7FDF9044B36
:102230000F221A7008BD00BF9C0C0020A7100020C0
:10224000A51000200A490B4A0888137840F6E3419C
:10225000884208D8142B0AD80133DBB2152B13702F
:1022600005D1FEF755BB142B9CBF0023137070479C
:102270009C0C0020A6100020034B18780E288CBF61
:1022800000200120704700BFA510002070B5214E2E
:10229000306800F003FB0546FFF738FD022828D11F
:1022A000FEF71AFC032824D11B4C23780E2B12D8DE
:1022B000FFF77DF978B9C82D1BD9FFF7A5FFFFF708
:1022C000C1FF00F0DDFA154B984208D900233360B6
:1022D00000F0C6FA04E040F6B8339D42ECE7306007
:1022E000FFF747FF23780133DBB20F2B88BF0F23A3
:1022F00023700B4D0B4C2B782278134309D0FFF73A
:102300004FFD30B1002028702070BDE87040FFF70D
:102310008BB970BDA8100020A5100020005C260518
:10232000A7100020A610002008B505F0A7FB20B1DB
:1023300005F0A4FB024B186008BD0120FAE700BFBE
:10234000B81000204A284ED004D80D2819D01D28D6
:1023500025D0704720F0020345F22122934202D09B
:102360004F2826D07047294A8978137819B143F04D
:1023700001031370704723F001031370244B19609D
:102380007047224A8978137831B143F00203137001
:10239000072B27D1FFF7C8BF23F00203EDE71B4A45
:1023A0008978137811B143F00403F0E723F00403B4
:1023B000E3E78A787AB1174A13782BB10133DBB29D
:1023C000042B88BF0123D4E7104A137843F0080395
:1023D0001370192BDDE70D490B7823F008030B7000
:1023E0000B4B1A6070478A7852B10A4B1A7812B1B7
:1023F00000221A707047054A137843F01003E7E78C
:1024000002490B7823F01003E9E700BFB510002064
:10241000B8100020B410002008B5134B1878134BE7
:1024200050B100F00100002201381A701146C0B20C
:1024300003F03EFF012008BD1B78002BFAD0013BC2
:10244000032BF7D8DFE803F002060A0CFF22FF2176
:102450001046EDE700221146FF20E9E70022F6E7EB
:102460000021FF220846E3E7AD100020B410002051
:1024700070B5294D294C286850B305F041FB40F652
:10248000B833984224D900232B60254D2B78072B95
:1024900030D105F0F3FA58B305F0F0FA214A206084
:1024A000137801331370204B1E8801F0BBFD3046BA
:1024B00001F0A1F804F05EFA08B904F059FB04F049
:1024C00017FAFEF73BFE194B01221A7000232B70FE
:1024D000206860B105F014FBFA2808D9114B1A786E
:1024E000511C062A19700ED900221A70226070BD84
:1024F0000120D3E7192BE9D104F03CFA08B904F024
:1025000037FB0B4BE0E705F0B9FA18B105F0B6FA66
:102510002060ECE70120FBE7B8100020B01000209D
:10252000B5100020AD10002038110020E810002068
:10253000B410002070B5002488B005460E461C2259
:10254000214601A8009409F0F1F9AB23324629464F
:102550000DF101008DF8003009F034FA6A460123CC
:1025600012F8011F0133DBB20C441D2BA4B2F7D1CA
:1025700020216846ADF81E4005F0D8FD08B070BDBA
:1025800010B50378AB2B88B021D1024600F11C01B5
:10259000002312F8014F23448A429BB2F9D1817F74
:1025A000DAB2914213D1C27FB2EB132F0FD143782D
:1025B000013B062B0BD8DFE803F0040C0A1A430A90
:1025C0004F00294B82781A70284B00221A6008B0FD
:1025D00010BD8378002B264B14BF012200221A70F5
:1025E000F5D0012008B0BDE8104004F00BBF83789F
:1025F000A22B0CD0A32B13D0A12BE8D1C07800388C
:1026000018BF012008B0BDE81040FEF7ABBDC1788F
:102610004FF09043202209B11A83D8E75A83D6E7B6
:102620004AF20433ADF800304FF090431B69C3F316
:102630008013032168468DF80230FFF77BFFC6E761
:1026400005238DF80030FFF761FB0A4B8DF8010080
:102650001B69C3F34003ECE780784E28B7D808B075
:10266000BDE81040FEF796BDB4100020B810002061
:10267000AC10002000040048084B1B7807B54BB194
:102680004FF481738DF8061001A80321ADF80430D2
:10269000FFF750FF012003B05DF804FBAC100020F1
:1026A00010B50446FEF778FF0B4B01221A700B4B56
:1026B0001C7005F0E3F90A4B18600A4B00221A70EF
:1026C000094B96221A60094AFF231370084A1370B7
:1026D000084A137010BD00BFCC100020C5100020A8
:1026E000C8100020C4100020C0100020BC10002022
:1026F000BD100020BE100020024B1878003818BF13
:1027000001207047CC1000202DE9FF4117490A2213
:1027100001A809F057F90024002320461A4619465B
:10272000013403F089F9582CF6D1114B1B7803F0D2
:10273000FD03012B0CD10F4E0F4FDFF8448001AC8D
:1027400000250A223378B3FBF2F3EAB2934202D8AF
:1027500004B0BDE8F08109493B7898F80020097879
:1027600014F8010B03F068F90135EAE7CBC700085C
:10277000CC100020C4100020BC100020BE1000208F
:10278000BD10002010B5214A1378022B16D0032B60
:102790002CD0012B07D11E491E480B780078984297
:1027A00006D90A330B7005F069F91B4B186010BD90
:1027B0000BB90A230B7002231370F4E7154B17496A
:1027C0001B78174C1D2B174B0AD8FF2008700021CF
:1027D00019702170144B40F6B83119600323EBE7F0
:1027E00000200870FF2120701970F3E70023137098
:1027F000FEF7E4FE0D4B9B7B002BD4D104F0BAF81E
:102800000028D0D1FEF7D1FECDE700BFCC100020CC
:10281000C4100020C5100020C8100020BE100020E9
:10282000BC100020BD100020C0100020CA65002090
:1028300008B5084B1B785BB1074B186805F060F9C9
:10284000064B1B68984203D9BDE80840FFF79ABFC2
:1028500008BD00BFCC100020C8100020C010002010
:1028600007B5002304486946CDE9003306F0C2FDF0
:1028700003B05DF804FB00BF3C690020FFF7F0BF28
:1028800007B50548694606F0B7FD019820F0784085
:1028900003B05DF804FB00BF3C69002010B504469E
:1028A000FFF7EEFF001B10BD00780021FDF706BF0B
:1028B0007FB50F48FEF724FC4FF47A7006F043F919
:1028C0000C4A0D494FF4A023CDE900234FF02073AB
:1028D000CDE90213684600230493ADF81430FEF7E7
:1028E000F5FB4FF47A7006F02EF907B05DF804FBA3
:1028F000D6C7000802201CB45A00000138B50D46A6
:10290000044628B9002914BF0420012000F073FEFA
:1029100029462046FFF7B0FE012038BDF8B5A0F5E6
:10292000FC43A3F1400204460D460C2A00F28380CA
:10293000DFE802F00707070714141414374A4A4A5D
:1029400074003F4B034413F8400CAB781BB100F00C
:1029500009FB0020F8BD00F053FBFAE7AD78394ED3
:10296000CDB9A3F1440406EB840716F82420EBB29A
:102970009A42EED93B440135587800F041FBF4E728
:102980003B440135587800F0EDFA16F82420EBB2FC
:102990009A42F5D8DDE7A3F14404002506EB84074D
:1029A000F3E7AB78002BD4D0274C2368002BD0D191
:1029B000E32000F0D7FA2C2000F0D4FA05F05EF8FE
:1029C00040F001002060C4E7FFF7A0F9022818D109
:1029D000AA781E481E4D3023AAB1483C2C7083F3C0
:1029E000118803680BB105F0FDFE194B194A1A490D
:1029F000164805F0EDFE002181F311882878FDF7D7
:102A000007FF0120A6E72A7083F3118803680BB142
:102A100005F0E8FE002383F31188F2E7FFF776F96B
:102A20000228EED1FFF7BCF90028EAD1FFF7ACFB92
:102A3000FFF736FEE5E72946FFF784FCE1E700BF34
:102A4000E6490008A00C0020EC100020D010002067
:102A5000CD100020A9280008400D030010B501206A
:102A600004F0D0FC4FF0904401224FF400714FF07D
:102A7000904007F01BFC4FF40073A36100224FF459
:102A80008061204607F012FC0020FEF733F9FDF7C5
:102A9000EFFD04F0F3FF074B40F001001860102336
:102AA000238380232383044B0822BDE810401A832C
:102AB00001F0F0BAF0100020001C004838B5274C97
:102AC0002068B0B105F01CF8B0F5FA6F11D9244BAD
:102AD00019780022226061B14FF090441A704FF0D3
:102AE0000073A3614FF4FA7006F02DF84FF40073F1
:102AF000A3611C4D2868A8B105F002F840F6B83370
:102B000098424FF09044184B4FF0100220D900210A
:102B10002960628308225A8304F0FEFD830701D4F2
:102B200080236383114C206860B104F0E9FFB0F5A5
:102B3000FA7F07D90023E320236000F061FA2C20FC
:102B400000F05EFAFFF794FCBDE8384001F06FBD7D
:102B5000228308221A8380232383E3E7F4100020D2
:102B6000E8100020F0100020001C0048EC100020AD
:102B70000E4B1B7810B52BB1FFF79AFE04F07EFFC9
:102B80000B4B18600B4C237873B104F077FFB0F552
:102B90007A7F09D2FFF7BAF8022805D1FFF788FE3D
:102BA000FDF7A4FD0023237010BD00BFE810002036
:102BB000F41000209F0C00207FB54378452B10D1E6
:102BC000094A0A494FF4A023CDE900234FF02073AE
:102BD000CDE90213684600230493ADF81430FEF7E4
:102BE00075FA07B05DF804FB02201CB45A0000011E
:102BF0004FF090430A491A690878C2F38022824252
:102C00000DD01A69C2F38022904208D01869C0F32F
:102C100080200870C0F10200C0B2FFF70FB8704703
:102C20009E0C002010B540F6C60303FB00F44FF4E1
:102C30007A73B4FBF3F4A4B203F09CFE20B92046EF
:102C4000BDE81040FFF79ABA00220D491346013241
:102C500011F8010BD2B2C02A0344F8D1094900226D
:102C6000013211F8010FD2B2C02A0344F8D13C223C
:102C700002FB03F0044BB0FBF3F0204484B2DEE728
:102C80004566002004670020FB03010008B50378B7
:102C9000AA2B03D0AB2B05D0002008BDFEF7D4FA39
:102CA0000120FAE7FFF76CFCFAE70378AA3B012B57
:102CB00001D8FFF7EBBF704703280DD805290BD8C3
:102CC000102A09D801EB0111662303FB001002440E
:102CD000024B33F8120070470120704746C90008C4
:102CE000FFF7EABF0120704701207047704708B521
:102CF000FFF7FCFF08BD000013B502AB03E90300BA
:102D00000F4B1B78B3B99DF8023073B16AB100F074
:102D100041FD04460146009800F008FD0099204658
:102D200002B0BDE8104001F03FBB009800F01AFD72
:102D30000446F3E7009800F02DFD0099F0E700BF8E
:102D400000110020034610B400885C880A4640EA5F
:102D5000044099885DF8044BFFF7CEBF012070470F
:102D600010B500210446FFF7EDFF2146FFF7BFFF36
:102D700010BD704708B500F0E1FBFFF7FAFFBDE8B2
:102D8000084046F2A81005F0DEBE08B5FFF7F2FFD6
:102D9000BDE8084004F0CCBE08B5FFF7EBFFBDE886
:102DA000084004F0CFBE38B501210546FFF7CAFF41
:102DB00029460446FDF796FEB0B32946204604F0A6
:102DC000D7FB88B32946204604F030FA60B3294681
:102DD000204604F043FB38B32946204604F0C6F9E8
:102DE00010B3AB787BB147F65A439C4223D00ED840
:102DF00047F601439C421BD047F603439C4215D043
:102E0000B4F5F84F0ED02846FFF76CFF0DE047F6FB
:102E10005B439C4212D047F65C439C42F3D101F0E5
:102E200079F8F0E7FFF7B1FF002038BD01F084F832
:102E3000FFF7B2FFF8E701F079F8E4E701F079F87D
:102E4000E1E708B504F0C3FD03F030FF00F030F80F
:102E5000BDE80840012003F0B9BF08B500F02DF827
:102E6000002003F0B3FFBDE8084004F0B5BD704793
:102E7000012070474FF0904310F0020F4FF0800296
:102E800014BF1A835A83704708B5012280214FF07E
:102E9000904007F00BFA4FF0904380225A8308BD10
:102EA00010B50446FFF7E3FF2046FEF745FE10BDD0
:102EB00008B50020FFF7F4FF08BD08B504F024FCB6
:102EC000FFF7EEFF08BD000010B504F01DFC074B36
:102ED0001A788242044607D0187004F0CFFD044BE4
:102EE00018602046FFF7DCFF10BD00BFF81000207F
:102EF000FC10002010B586B06C4684E803009DF8F5
:102F000002300BB100F048FF0023ADF8163094E812
:102F1000030004ACADF81410049094E80300BDF86D
:102F2000143002904BB1BDF808204FF6FF739A425F
:102F300003D02046FFF712FF18B194E8030000F019
:102F400065FE06B010BD008800F046BC08B529B18A
:102F500001F060FCBDE8084001F03ABD01F0ACFCB6
:102F6000F8E7000010B50446002843D0031FDBB289
:102F7000A02B11D8204B0146186804F047FC20B163
:102F8000204600F0B5FE00F037FF204600F0A8FE16
:102F9000BDE8104000F030BF00F12003DBB2072B8A
:102FA00007D800F007040120A040C0B200F0CEFE18
:102FB000EEE700F15B03DBB2022B05D82438BDE855
:102FC000104080B204F0CEBB00F15803DBB21A2BE4
:102FD00006D80A4ABDE8104032F8130004F0DEBB00
:102FE0003334E4B2122C05D801F014FCBDE81040D3
:102FF00001F0EEBC10BD00BF1C0E002076CC000816
:1030000008B50346A0B3021FD2B2A02A05D800F02B
:103010006FFEBDE8084000F0EFBE00F12002D2B222
:10302000072A07D800F0070301209840C0B200F03B
:1030300095FEEEE700F15B02D2B2022A04D8BDE8A9
:103040000840002004F08EBB00F15802D2B21A2AC8
:1030500004D8BDE80840002004F0A0BB3333DBB245
:10306000122B05D801F028FCBDE8084001F0B0BCE7
:1030700008BD38B505460C46FFF774FF1CB9284655
:10308000FFF7BEFF38BD6420013C05F05CFDA4B233
:10309000F4E708B539280CBF50210021FFF7E9FFFC
:1030A00008BD08B528B100F051FEBDE8084000F0A9
:1030B000A3BE08BD08B528B100F050FEBDE8084029
:1030C00000F09ABE08BD00002DE9F84387798578A5
:1030D00081460C4600F02AFE3F090646F0B12E4616
:1030E000E5B1C4F3072303F0F002402A09D004F14C
:1030F0002002D2B2072A23D91FB903F0E003202B04
:1031000020D0A64B5E7816F0040607D0022000F00F
:10311000CDFE00F00BFE80F00106F6B2C4F30333DF
:103120000B2B6AD8DFE813F0100010003E003E00C1
:10313000C100D80069006900DD004201540154015A
:103140000026EBE73E46E9E7C4F30723C4F3032771
:103150000F2B88BF3F01E4B285B157B104F12003C2
:10316000DBB2072B384600D92CB900F0EFFD00F098
:1031700043FE20463FE000F0FFFDF8E72046FFF762
:103180003FFF002F39D004F12003DBB2072B384674
:1031900000D914B900F0E2FD01E000F0F5FD00F007
:1031A0002BFE2AE0C4F3072303F0F003C4F3032843
:1031B000202BE4B218BF4FEA081874B1012C5FD07D
:1031C000002D65D0002F5ED099F80630D807D0D5F5
:1031D0006FF3071389F8063055E0704B5B785C0796
:1031E0002BD415B3B8F1000F04D0404600F0AEFD6B
:1031F00000F002FE0020FFF7B5FE002E00F0448133
:1032000000F08CFD10F0010040F03E8189F80200D2
:1032100000F07CFD00F022FA484600F04BF900F087
:1032200075FDBDE8F84300F025BA2846FFF7E8FE33
:10323000B8F1000FE1D04046ACE795B13FB900F0DE
:10324000B1FD40EA0800C0B2FFF72BFFD5E7012F20
:10325000F5D100F0A7FD40EA0800C0B200F0AEFDD5
:10326000CBE72FB900F0BCFD4046FFF723FFC4E7D2
:10327000012FC2D04046FFF71DFF00F0B1FDBCE7B3
:103280001DB1052FB9D84046DEE7042FB5D8EBE7CE
:10329000002FE9D0392C0CBF4FF4FA50012005F073
:1032A00052FC2046FFF7ACFEA7E714F4406FC4F3CE
:1032B000812307D0012BA0D165B1C4F3090004F02C
:1032C0006DFA9AE725B1C4F3090004F04BFA94E7CC
:1032D0002846FAE72846F2E72946E0B2FFF736FE2D
:1032E0008BE714F4407F2DD1F5B9C4F34213E10606
:1032F0004FEA830348BF0F25DBB248BF9D4004F06F
:103300000F0248BFED4302FA03F2C4F3812448BF21
:10331000ADB292B2022C45EA02000DD0032C0ED0C1
:10332000012C06D000F072F904F0EEF9FFF7B8FDB9
:1033300063E700F063F9F7E700F070F9F4E700F0F5
:103340005AF9F1E7C4F3012215B3D207ECD5C4F35F
:10335000421314F010004FEA8303DBB21CBF0F20AE
:10336000984004F00F0202FA03F218BFC043C4F3FE
:10337000812414BF83B2034692B2022C43EA0200B6
:103380000ED0032C0FD0012C05D000F091F9CBE723
:10339000012AC9D9DBE700F083F9C5E7DE65002023
:1033A00000F08EF9C0E700F047F9BDE7E7B2C4F3DB
:1033B000032435B1204600F051F93846FFF771FE7D
:1033C000B2E73846FFF776FE204600F053F9ABE748
:1033D0005FFA84F8A8F1F003042B3CD8DFE803F08F
:1033E00003210D141D0035B1042F9DD8C4F3042012
:1033F00000F04AF998E7052FF7E7C4F30420002D01
:10340000E3D100F02BF98FE725B1C4F3042000F0DD
:103410001EF989E700F018F986E71C4B5B785B071B
:1034200004D4C4F30420002DCFD0EAE74DB1C4F397
:103430000424204600F012F90321204600F012FD7A
:1034400072E7012000F032FD012F7FF66DAF022000
:1034500000F02CFD68E73DB11FB14046FFF782FD4B
:1034600062E7C4F30420CCE75FB1B8F1390F0CBFB9
:103470004FF4FA50012005F066FB4046FFF7C0FD0F
:1034800052E7C4F30420A0E7BDE8F883DE6500201E
:1034900038B501880446807800F0AAF9054600F0A6
:1034A00017F900F0A7F829462046BDE83840FFF795
:1034B0000BBE000013B5044601460622684608F01C
:1034C00081FAA388F3B1BDF800204FF6FF739A424A
:1034D00018D02046FFF767FC70B900F027FC88B1D0
:1034E000A3787BB1084B5B785B070BD5022002B059
:1034F000BDE8104000F0DABC2046FFF7C9FF2046C7
:10350000FFF72EFC02B010BDDE65002008B50020DC
:1035100004F028F9002004F041F900F03DFC00F02F
:103520006BFC01F071FABDE8084001F051BA08B532
:1035300000F0E6FBBDE80840FFF7E8BF08B500F083
:1035400015FCBDE80840FFF7F2BFC0F30333062BBC
:10355000C2B213D094BF0E33063303F00F03012B16
:1035600010D8F02A10D004D8E72A8CBF0020012000
:103570007047F42A14BF002001207047E72A03D9BE
:10358000F12AF7E7002070470120704713B5044681
:1035900001460622684608F015FAA3886BB1BDF80B
:1035A00000204FF6FF739A4207D0208800F014F9EC
:1035B00002B0BDE81040FFF7C8BF002002B010BD48
:1035C00082B002AB03E9030002B0704782B002ABE5
:1035D00003E9030002B07047704708B5FFF7FCFF2E
:1035E00008BD000008B5FFF7F8FF014B188008BDC3
:1035F000381100207047FFF7F5BF0000024B1B8811
:103600001843FFF7EFBF00BF38110020024B1B88A3
:103610001840FFF7E7BF00BF38110020024B1B889E
:103620005840FFF7DFBF00BF38110020704708B5D2
:10363000FFF7FCFF08BD000008B5FFF7F8FF014BDE
:10364000188008BD361100200020FFF7F5BF0123C8
:1036500003FA00F080B2FFF7EFBF0000012303FA86
:1036600000F0034B1B88184380B2FFF7E5BF00BF93
:1036700036110020034A01238340108820EA03000A
:10368000FFF7DABF36110020012303FA00F0034BE5
:103690001B88584080B2FFF7CFBF00BF3611002013
:1036A000024B1B881843FFF7C7BF00BF361100202D
:1036B000024B1B881840FFF7BFBF00BF3611002028
:1036C000024B1B885840FFF7B7BF00BF36110020E0
:1036D000704701F0070330B5C908012402EB8102ED
:1036E0009C40E4B2013A002112F8015F20FA01F394
:1036F00043F300036B40234001315D400429157002
:10370000F2D130BD10B5002200F00704C00801EB73
:10371000800110468B5CE34003F0010393400132CB
:103720001843042AC0B2F5D110BD000017B40C46EE
:10373000C0F307210529ADF804000DD89DF8043029
:10374000102B09D803EB0113054A1944204603B096
:103750005DF8044BFFF7BDBF03B05DF8044B704745
:103760000111002082B0ADF80400C0F30720052845
:103770000AD89DF80430102B06D8054900EB00103C
:10378000184402B0FFF7BEBF002002B0704700BF70
:10379000011100200E4B73B51D880E4BADF80400CF
:1037A0001B881D43ADB20F2445FA04F3DB0705D493
:1037B000013CF9D20026304602B070BDE6B2019954
:1037C000304600F002FE80B20128F1D0F3E700BFDE
:1037D000361100203811002007B5ADF8040001981B
:1037E000FFF7D8FF019903B05DF804EB00F0EDBDE1
:1037F00013B5104BADF804101B782BB1019802B033
:10380000BDE81040FFF7E8BF70B10198FFF7C2FFB5
:10381000044601460198FFF789FF0199204602B04E
:10382000BDE8104000F0D1BD0198FFF79BFF0446B2
:10383000F3E700BF0011002084B06B4683E803006B
:1038400093E80300BDF80420029052B1BDF80800CF
:103850004FF6FF73C31A5842584180F0010004B07C
:1038600070470120F9E70000F8B50C4B0C4E1C78AE
:103870000C4D3378A34200D1F8BD05EBC40335F8F5
:1038800034005F889A88D98840EA074042EA0141BB
:103890000134FFF79BFE04F00704EAE73A11002029
:1038A0003B1100203C110020064B10B418885C88A6
:1038B0009A88D98840EA044042EA01415DF8044B05
:1038C000FFF784BE7C1100202DE9F047204CA3793E
:1038D0000F2B0CD8A37853B11E4B94F801801D78A0
:1038E0001D4B94F800901F781C4EBD4201D1BDE8DD
:1038F000F08723886088B4F804A043EA004051466A
:10390000FFF79AFF00B306EBC5035A7842451BD177
:1039100016F835204A4517D19A78AAB99A88A2EBA9
:103920000A0292B2C72A0FD8A2790948012161F38D
:103930000712A2719A7961F307129A71FFF7BAFD23
:10394000BDE8F047FFF790BF013505F00705CCE76C
:103950007C1100203A1100203B1100203C11002076
:10396000F0B50D4B0D4C1B7826780D4CB34201D1B0
:103970000020F0BD04EBC3056F788F4206D114F828
:103980003370874202D1AD78954203D1013303F001
:103990000703EBE70120ECE73A1100203B11002080
:1039A0003C1100202DE9F04F87B0974D02AE044640
:1039B00001460622304608F005F82A886888B5F8DE
:1039C00004B094F8008094F80190A778B4F804A0AB
:1039D000019242EA00405946FFF72EFF002800F00E
:1039E0000281AAEB0B0195F802B0019A89B2BBF1F2
:1039F000000F00F0C280C729AB7900F29D800F2B29
:103A000021886BD88A420DD167B9012262F307136E
:103A1000AB71FFF749FF2846FFF74CFDAB79A37167
:103A200000253DE096E803000DF1100A0490ADF882
:103A300014109AE80300FFF7FFFE28B127B93A46B1
:103A400049464046FFF78CFF96E803000490ADF826
:103A500014109AE80300FFF7EFFE064628B13FB1C5
:103A6000AB7943F00103AB71DAE7002FD8D0F7E769
:103A70003A4649464046FFF773FF05460028CFD136
:103A80000298FFF7A9FEC0F30332032AC3B20BD892
:103A9000012A13D910F4706F15D0A2790F2A12D809
:103AA000284607B0BDE8F08F063202F00F02012A67
:103AB0000ED92046FFF7FEFC3546F1E710F4706F93
:103AC00001D0002BECD02033DBB2072BE8D9F0E794
:103AD000EF2BE5D90F33DBB2022BF7E78A420CD18B
:103AE0005FB92046A371FFF7E5FC0822214628466E
:103AF00007F068FFFFF7D8FE3DE02046FFF746FDE0
:103B0000002867D0002F65D0AB791F2B0CD92A88ED
:103B1000ADF8102004A800228DF81220ADF814A0F2
:103B20008DF81630FFF7C6FC37480822214607F00B
:103B300049FFFFF7C9FEDDE70F2B0ED896E803001B
:103B4000FFF73EFD2846FFF7B5FC08220021284676
:103B500007F0ECFEFFF7A8FE62E721888A42CCD18D
:103B6000002FCAD12046A371FFF7A4FC08223946D2
:103B7000284607F0DBFE012592E7C7292ED84FB370
:103B800023889A421DD1AB79DA0714D40F2B12D9AE
:103B9000A37103F0F003F02B06D0A379C3F3031253
:103BA000013262F30713A3712046FFF783FC164826
:103BB000082221469CE708222146134807F002FF0D
:103BC000D9E72046FFF7E2FC0028ADD1AB7943F0FE
:103BD0000103AB712046FFF76DFCCCE796E80300CC
:103BE000FFF7EEFCB1E7002FF4D02046FFF7CEFC44
:103BF0000028EFD008222146284607F0E3FE284699
:103C0000FFF7A1F995E700BF7C110020F0B587B060
:103C10006C4684E803002046FFF7C4FE2C4F2D4D70
:103C2000064678B194E80300FFF706FE18B194E861
:103C30000300FFF7CBFC284C28783B7883422DD13A
:103C400007B0F0BD94E80300BDF80440029004AB57
:103C500083E803002A783878002CECD0BDF80840BF
:103C60004FF6FF718C42E6D0441C04F007049442E6
:103C700009D1FFF763FC0822314618483E702E70C8
:103C800007F054FED7E71946134B082203EBC00098
:103C900007F098FE3C70FFF7E7FDCCE704EBC000AF
:103CA000FFF780FE0028CBD02B7834F8330004EBEC
:103CB000C3035E889A88D98840EA064042EA0141F7
:103CC000FFF784FC2B78013303F007032B70B3E775
:103CD0003B1100203A1100203C1100207C110020F3
:103CE000024B0146186803F0F7BD00BF1C0E002010
:103CF000024B0146186803F009BE00BF1C0E0020ED
:103D0000014B186803F01CBE1C0E0020024B93F9F7
:103D10000000C0F3C7007047A4110020024B1878C0
:103D200000F00700704700BFA4110020034B187873
:103D300010F0070018BF0120704700BFA411002039
:103D4000014B1878704700BFC7110020024B1A784A
:103D500010431870704700BFC7110020024A137843
:103D600023EA000313707047C7110020014B0022A3
:103D70001A707047C7110020024B1A781043187050
:103D8000704700BFC6110020024A137823EA0003DF
:103D900013707047C6110020014B00221A70704743
:103DA000C6110020014B1878704700BFA5110020F4
:103DB000704708B5FFF7FCFF08BD0000064A5278BF
:103DC000520708B506D5054A1178814202D0107015
:103DD000FFF7EFFF08BD00BFDE650020A511002042
:103DE00008B5044B1A781AB100201870FFF7E1FFEC
:103DF00008BD00BFA511002010B5124B124A1B7858
:103E00001278124C1343124A20681278037032B1B0
:103E10001343037003F0DEFC08B1FFF7E1FF2468F1
:103E20000C492022204607F071FD48B1214609487F
:103E3000202207F0C7FD2046BDE8104003F070BC0B
:103E400010BD00BFC7110020C61100201C0E0020AD
:103E5000A511002084110020704708B5FFF7FCFF72
:103E600008BD00000A4A5278520710B50CD5094C1B
:103E700041EAC0012170FFF7F1FB94F90000C0F3A3
:103E8000C700FFF7EAFF10BDBDE81040FFF7E6BB33
:103E9000DE650020A411002008B5034B0020187037
:103EA000FFF7DBFF08BD00BFA411002008B50C4AD6
:103EB00092F9003023EA000040B2107042070ED1A0
:103EC000DBB283420BD0074B5B785B0707D5C0F3AF
:103ED000C700FFF7CFFBBDE80840FFF7DDBF08BD17
:103EE000A4110020DE650020094A08B55378C3F309
:103EF000800181420AD060F382035370108800F081
:103F000038F8BDE808400220FFF7D0BF08BD00BF69
:103F1000DE650020044B5878C0F3800080F001007B
:103F200000F00100FFF7E0BFDE6500200120FFF791
:103F3000DBBF0020FFF7D8BF08B501F07BF8BDE874
:103F400008404FF6FF71002000F0BEBE08B500200B
:103F500000F053FE4FF6E763C31A5842584108BDBC
:103F6000022000F03BBE032000F038BE042000F029
:103F700044BE0146042000F0A7BE01460F2000F019
:103F8000B1BE0146132000F0ADBE0020FFF7F9BF1F
:103F900008B50020FFF7F1FFFFF7F7FF08BD0000AD
:103FA00010B501F047F84FF6E761002000F08CFEF5
:103FB0000021022000F07AFE0021032000F076FEAE
:103FC000174B00244FF4A05104201C8000F07CFE0D
:103FD0002146062000F06AFEFF21072000F066FE61
:103FE0002146082000F07EFE21460D2000F05EFEF6
:103FF0002146182000F076FE2146172000F056FEDC
:1040000021461C2000F06EFE2146202000F05CFEC0
:104010002146182000F066FEFFF7BAFF10BD00BF72
:1040200038110020FFF7BCBF01460E2000F03EBE55
:1040300037B50E4D03F058FD2B888342044612D04D
:104040004FF6FF73ADF8003000238DF8023003F017
:104050004BFD40F00100ADF8040002AB13E9030092
:10406000FEF748FF2C8003B030BD00BFC811002010
:1040700008B503F003FD024B1860024B186008BD41
:10408000E8110020E41100207047704708B5FFF7E1
:10409000FCFF08BD704701207047000008B50748C5
:1040A00000F07EFA00F0C4FF18B9FFF7BBFF00F084
:1040B000BFFFFFF7E9FFFFF7E9FF08BD99450008DB
:1040C0000120704708B5FFF7FBFF08BD704708B532
:1040D000FDF769FDFFF7FAFF08BD08B500F082FAA9
:1040E000FEF7D2FEBDE8084002F002BC08B503F0BE
:1040F000C3FC00F0A5FAFFF7F0FF03F0A1F9FEF70B
:10410000ADFC08BD002003F07DB900002DE9F04FA3
:1041100085B0FFF7C0FF60B9FFF78AFFFFF7F2FF36
:1041200002F0C4FD00F098FC05B0BDE8F04FFEF7CA
:10413000CBBE2E4F00F09CFA3E460024E0B256F86B
:10414000045B00F075FA052C4CD0854204F10104A3
:10415000F4D0274B1B789B0701D500F06FFAFFF7CF
:10416000B1FF002600900DF1080B5FFA86FA504669
:1041700000F05EFA57F8043B984205462CD080EADE
:10418000030800244FF0010918EA090F1CD0009B16
:1041900015EA090F14BF012200228BB18DF80A2005
:1041A00001928DF808408DF809A003F09DFC40F0C5
:1041B0000100ADF80C009BE80300FEF79BFE019A9E
:1041C0002146504602F0D2F90134E4B2112C4FEAF4
:1041D0004909D9D147F8045C0136062EC5D1FFF74D
:1041E00047FF9BE78542B4D196E700BFCC11002082
:1041F000EC11002038B500F0F3F8B0F5A44F0446F8
:1042000043D2B0F5A04F80F0AD80DF2816D8CC287F
:1042100000F28B80A7280AD8A42879D8012804D0D6
:10422000031F9BB2A12B28BF0024204638BDA0F15C
:10423000A8039BB21A2B70D90024F6E7B0F5804F83
:1042400019D2B0F5005F80F09C80E728EDD9A0F589
:1042500080739BB2B3F5F85FEED2C0F3072000F095
:1042600045F90546E0B200F0BBF82D0205F4F8551B
:1042700040EA050407E0C0B200F0B2F804F470644C
:10428000044344F42044A4B2CFE7B0F5A54F22D2B2
:1042900045F25F23984252D845F23F2398420BD90A
:1042A00000F003040123C0F38202A34043EA421357
:1042B00043F40C439CB2B8E745F21F23984237D829
:1042C00000F003040123C0F38502A34043EA421334
:1042D00043F40D43EEE745F2BF2398420AD845F276
:1042E0009F23984200F01F0034D84AF2F40343EAB7
:1042F00000249AE7A0F5A543403B9BB21F2B9BD817
:10430000040204F4F85444F4204444F0F0048CE72C
:10431000A0F1240444F48044B5E75834214BE4B2BE
:1043200033F8144044F488447FE740F4A044AAE7FB
:1043300000F01F044AF2F10343EA042475E700F099
:1043400003040123C0F38202A34043EA421343F46F
:104350000A43AFE700F0CAF8040204F4F85444F446
:10436000005462E700F01F0000F0C0F8C306C4F379
:10437000431448BF0001240200B2044344F4104433
:1043800081E7C0F3042000F0B1F80546E0B200F088
:1043900027F82D0205F4F855054345F40055ACB255
:1043A00043E700BFACCC000882B0ADF80410C1F305
:1043B0000721052906D89DF80420102A02D802B04A
:1043C000FEF78EBC002002B0704707B5ADF80410B0
:1043D0000199FFF7E9FF03B05DF804EBFFF70ABFAF
:1043E000E72850D8DF2807D8312865D00ED82928EB
:1043F00058D02A2867D07047A0F1E003072B42D895
:10440000DFE803F01541242933413D42392804D027
:10441000822802D0352840D07047334B1A78920753
:104420005CD15B7813F0080F18BF292070472E4A23
:104430001378D9074ED4527812F0010F23D013F01D
:10444000100F08BFE32018BF00207047264B1B78D1
:1044500013F0040FF2E7244A137859073CD452783A
:10446000D2073BD413F0100FEDE71F4B5A7891079A
:1044700009D51B7813F0100F08BFE720E3E71A4BAC
:104480001B781A07F6D47047174A1378190727D4F0
:1044900052789107E6D5E4207047134B1B7813F050
:1044A000200FC1E7104B1A7892061BD45B7813F0EB
:1044B000080F18BF392070470B4B1B7813F0400FC3
:1044C00018BF2A207047084B1B7813F0400F18BF05
:1044D0003120704739207047E2207047E020704754
:1044E000E62070473520CEE7DE650020294A1378A4
:1044F000590707D500F01801082927D100F0F70067
:1045000040F00400190707D500F01801182926D13A
:1045100000F0E70040F014005278D10707D500F012
:104520001801082924D100F0F70040F0010092079B
:1045300007D500F01802182A23D100F0E70040F058
:104540001100DB0648BF00F0E700704700F01401DF
:10455000042904BF00F0FB0040F00800D2E700F09F
:104560001401142904BF00F0EB0040F01800D3E759
:1045700000F01101012904BF00F0FE0040F0080026
:10458000D5E700F01102112A04BF00F0EE0040F060
:104590001800D6E7DE650020002070470020704735
:1045A000014B1860704700BF200E0020FFF7C4BC0D
:1045B00008B500F05DF84FF4166004F0C4FA00F09E
:1045C00057F8002000F034F8C30705D5FFF7EEFFD9
:1045D000BDE8084003F0ACBA08BD08B5FFF7E8FF36
:1045E00008BD000008B5FFF7B1FC08B9FFF71AFDD8
:1045F000FFF7B6FC084B1870FFF7B8FC074B1880A4
:10460000FFF7EBFFFFF7AFFCFEF7F5FF044B188851
:10461000BDE80840FFF70BB8EC110020DE65002074
:1046200036110020704708B5FFF7FCFF08BD704742
:10463000014B53F820007047F865002070470000D8
:1046400010B51824FBF780FF22460021064807F02A
:104650006DF922460021054807F068F9062000F0B0
:104660001BF8FFF7E0FF10BDE0650020F8650020B3
:1046700010B5074C2046FBF799FF06490346062272
:10468000204600F00BF80446FEF718FA204610BD4D
:10469000E0650020F8650020704700002DE9F0413A
:1046A000DFF8588007460E46144633B1012388F8D8
:1046B000003003F0E3F9104B186098F800501DB972
:1046C00000252846BDE8F0810B4B186803F018FA66
:1046D0000B28F5D9A40022463946304607F016F9D2
:1046E00040B122463946304607F06CF9002388F87D
:1046F0000030E6E70546F9E7F0110020F41100204C
:10470000704708B503F052FDFFF7F0FCBDE8084024
:1047100003F062BD08B503F065FDFFF7F7FCBDE8E7
:10472000084003F061BD08B503F06CF903F03CFDEF
:10473000FFF7B4FCFFF7E5FFFFF7ECFFFFF7C7FC5F
:10474000FAE70000164B1B78D90707D5154B1878E8
:1047500040007F2820D808B3C0B270479A0703D51D
:10476000104B18788000F4E75B0703D50D4B1878E1
:10477000C000EEE70C4B1B7863B10C4A0949127874
:1047800008789342F4D210FB03F0C000B0FBF2F0C3
:1047900080B2DEE70820DFE77F2070470120704706
:1047A000FC110020290E0020FB110020280E002003
:1047B000144B1B78D90705D5134B18788008F8B12E
:1047C000C0B270479A0703D50F4B18784008F6E738
:1047D0005B0705D50C4B18787F28F0D97F207047F0
:1047E0000A4B1B7853B10A4A07491278087893425A
:1047F0003CBF10FB03F0B0FBF2F0EDE70120DFE778
:1048000001207047FC110020250E0020FA11002025
:10481000240E002008B5A0F1CD03122B10D8DFE83C
:1048200003F00A1013192E2E2E2E2E2E2E2E1C21A2
:10483000252B363C4100FFF785FF40421C4BD870CA
:1048400008BDFFF77FFFF9E7FFF77CFF4042184BF9
:104850009870F5E7FFF776FFF9E7FFF7A9FF144B2C
:104860001871EDE7FFF7A4FF4042F8E7FFF7A0FF5C
:1048700040420F4B5871E3E7FFF79AFFF9E70C4A04
:10488000D1385178012383400B435370D8E7094A4C
:10489000137843F001031370D2E7064A137843F00C
:1048A0000203F8E7034A137843F00403F3E700BF79
:1048B000FD110020FC11002030B5414BCD2893F9AB
:1048C000041093F9052093F9024093F9035012D193
:1048D000002D01DA0022DA70D9789A780A4351B2B1
:1048E0000AB9384A11701A795B7913435AB20BB975
:1048F000354B1A7030BDCE2802D1002DEADCEBE733
:10490000CF2804D1002CE7DA00229A70E4E7D028FF
:1049100002D1002CF8DCDFE7D92804D10029DBDD47
:1049200000221A71D8E7DA2802D10029D4DAF7E791
:10493000DB2804D1002ACFDA00225A71CCE7DC2828
:1049400002D1002AF8DCC7E7D1380E28C4D801A26A
:1049500052F820F091490008914900089149000857
:1049600091490008914900089149000891490008BF
:1049700091490008D9480008D9480008D9480008DA
:10498000D94800089F490008AB490008B54900080C
:104990005A780121814022EA01025A709CE70B49B2
:1049A0000A7822F001020A7096E708490A7822F094
:1049B0000202F8E705490A7822F00402F3E700BF93
:1049C000FD110020FB110020FA110020FC11002035
:1049D00008B503F089F8094B9A78D9780A431CBFC7
:1049E000074A10801A795B791A431CBF054B18805F
:1049F000BDE80840014802F0ABBE00BFFD11002039
:104A0000F8110020F611002008B506220548002103
:104A100006F08CFF044A00231370044A1370044A02
:104A2000137008BDFD110020FB110020FA110020B9
:104A3000FC11002090F902305BB990F9033043B9C2
:104A400090F904302BB990F90500003818BF012007
:104A5000704701207047000037B5574C06222146A9
:104A6000684606F0AFFF00239DF80320A370E370B3
:104A7000237163719DF8023013430AD04F4B18889D
:104A800003F037F84E490B783BB34E4A1278904208
:104A90002DDC9DF804309DF8052013430BD04A4BC4
:104AA000188803F026F849490B78002B4CD0484A67
:104AB0001278904252DC4048694602F055FF18B91E
:104AC0003D48FFF7B7FF08B1FFF782FF06226946AE
:104AD000394806F077FF03B030BD3E4A127802EB4A
:104AE0008202B0EB420FD4DD01330B7001E0FF2BEB
:104AF000FAD19DF902503DB1FFF724FE002DD4BF3D
:104B0000FF2301234343A3709DF903503DB1FFF7F9
:104B100019FE002DD4BFFF2301234343E37094F912
:104B20000230002BB5D094F90320002AB1D0B52172
:104B30004B431B1208BF0123A37001FB02F31B129E
:104B400008BF0123E370A4E7234A127802EB820234
:104B5000B0EB420FAFDD01330B7001E0FF2BFAD158
:104B60009DF904503DB1FFF723FE002DD4BFFF2374
:104B70000123434323719DF905503DB1FFF718FE12
:104B8000002DD4BFFF2301234343637194F9043004
:104B9000002B90D094F90520002A8CD0B5214B43EE
:104BA0001B1208BF0123237101FB02F31B1208BF74
:104BB000012363717FE700BFFD110020F811002081
:104BC000FB1100202A0E0020F6110020FA1100200F
:104BD000260E00202B0E0020270E002007B50023F4
:104BE000014601220DF107008DF8073000F024FA8C
:104BF0009DF8070003B05DF804FB07B500230146EC
:104C000002220DF10600ADF8063000F015FABDF8ED
:104C1000060003B05DF804FB07B50422014600233B
:104C20000DEB0200019300F007FA019803B05DF864
:104C300004FB07B501228DF8071001460DF10700AE
:104C400000F02CFA03B05DF804FB07B50222ADF8C2
:104C5000061001460DF1060000F020FA03B05DF8E1
:104C600004FB07B50422019101460DEB020000F0A0
:104C700015FA03B05DF804FBF8B5D31D23F0070364
:104C800000AFADEB030D0546144668460E4600F036
:104C9000D3F922466946284606F038FE20B122465E
:104CA0003146284600F0FAF9BD46F8BD38B50C4645
:104CB0000546FFF793FFA04205D021462846BDE8F0
:104CC0003840FFF7B6BF38BD38B50C460546FFF78C
:104CD00094FFA04205D021462846BDE83840FFF7A2
:104CE000B4BF38BD38B50C460546FFF795FFA04266
:104CF00005D021462846BDE83840FFF7B2BF38BD91
:104D000010B50A4C00F0A4FA094800F03BFA20461E
:104D100000F038FA074800F035FA074800F032FA98
:104D200000F0A4FA054B1C6010BD00BF00E80108AC
:104D300000E0010800F0010800F80108041200205A
:104D400070B520F00704A3B204F1006404F5F03458
:104D5000D4E90012B2F1FF3F08BFB1F1FF3F17D114
:104D60000D4A9918D0584968002908BF00286FEAF1
:104D700000066FEA01050DD000F06AFA20463246BF
:104D80002B4600F02BFA044600F070FA204670BD66
:104D90000024FBE70524F9E708120020F8B5FFF727
:104DA000AFFF00F055FA0D4D0D4C0E4F0526D5E91D
:104DB000002352EA030105F1080507D0D243DB4383
:104DC000204600F00BFA052818BF06460834BC42FE
:104DD000EDD100F04BFA3046F8BD00BF08120020BC
:104DE00000E0010800E8010810B520F00704D4E94C
:104DF0000012B2F1FF3F08BFB1F1FF3F0FD010F436
:104E0000FF6F08D100F024FA204600F0BBF9BDE89E
:104E1000104000F02BBABDE81040FFF7BFBF10BD37
:104E200030B51A4C1A4A1B4D002323701A4B1846F2
:104E300052F8041BC943AA4243F8041BF8D1174D8A
:104E4000D2E90031B3F1FF3F6FEA010107D013F45B
:104E5000803F0ED09BB2C1540832AA42F0D1104B11
:104E60001A6000BF207880F00100C00200F4784092
:104E700030BD13F4003F02D09BB2C152ECE713F4F3
:104E8000802F1CBF9BB2C150E6E700BF0312002079
:104E900000E0010800E801080812002000000208F4
:104EA0000412002008B5FFF72BFFBDE80840FFF70C
:104EB000B7BF0000B0F5006FF8B5054624D2144F17
:104EC0003B5C8B4222D03954FFF73AFF0446C8B905
:104ED000104E114B3068984203D9BDE8F840FFF7F7
:104EE0005DBFFFF781FF00F0B3F97B5D3068DB4306
:104EF00045F4803200F072F93368083304463360B9
:104F000000F0B4F92046F8BD0724FBE70024F9E7D8
:104F10000812002004120020FFFF0108F8B540F23B
:104F2000FE739842054624D8144F3B5A8B4222D038
:104F30003952FFF705FF0446C8B9114E114B3068CE
:104F4000984203D9BDE8F840FFF728BFFFF74CFFB0
:104F500000F07EF97B5B3068DB4345F4003200F003
:104F60003DF9336808330446336000F07FF920468A
:104F7000F8BD0724FBE70024F9E700BF0812002072
:104F800004120020FFFF0108F8B540F2FC739842BC
:104F9000054624D8144F3B588B4222D03950FFF796
:104FA000CFFE0446C8B9114E114B3068984203D960
:104FB000BDE8F840FFF7F2BEFFF716FF00F048F932
:104FC0007B593068DB4345F4802200F007F93368F1
:104FD00008330446336000F049F92046F8BD072441
:104FE000FBE70024F9E700BF0812002004120020AC
:104FF000FFFF0108B0F5006F3ABF024B185CFF20BD
:10500000704700BF0812002040F2FE7398420AD891
:10501000064BC20741BF5A1C125C185C40EA0220D2
:1050200058BF185A70474FF6FF707047081200209B
:10503000FFF7F6BEFFF736BF2DE9F84304461546E5
:105040004AB1CA0707D588B2FFF7D4FF4A1C04F853
:10505000010B013D114625F0010704F0010904EBA5
:1050600007080E46444508D1EB0704D5C81980B29D
:10507000FFF7C0FF2070BDE8F883B0B2FFF7C4FFB0
:105080000234B9F1000F03D124F8020C0236E9E72B
:1050900004F8020C000A04F8010CF7E770B50446A6
:1050A0000E46154605B970BD16F0030FB0B212D109
:1050B000032D10D962782378E17843EA0223A2789D
:1050C00043EA024343EA0161FFF75EFF04231E4403
:1050D0001C44ED1AE6E7F30709D4012D07D0237825
:1050E000617843EA0121FFF719FF0223EFE72178F6
:1050F000FFF7E0FE0123EAE7054B9A69002A05DA8B
:105100004FF000429A61034B01221A70704700BFB2
:1051100000200240031200200B4B1A69D1030DD46A
:105120001A6912F0E80F0BD11A69D2060AD41B696A
:1051300013F0020F14BF04200520704701207047B0
:1051400002207047032070470020024073B50446D8
:10515000FFF7E2FF0025FF2601280FD114B9062032
:1051600002B070BD01950196019B1BB9FFF7D4FFFA
:10517000013CF1E7019B013B0193F5E7002C08BFDF
:105180000620EDE738B5054640F6FF70FFF7DEFF75
:1051900005281FD1104C636923F47E736361636932
:1051A00005F17845ED0A43EAC50343F00203636164
:1051B000636943F48033636140F6FF70FFF7C6FF15
:1051C00006281FBF636923F47E7323F00203636123
:1051D000F923236138BD00BF00200240F8B51E4608
:1051E000194B174600F178429A42054629D81F20EC
:1051F000FFF7ACFF052823D1144C236823F4806308
:105200002360636943F0010363612F60BFF36F8F15
:105210001F206E60FFF79AFF06281EBF636923F008
:1052200001036361F9232361236843F480532360FE
:10523000236823F480532360236843F4806323604E
:10524000F8BD0720FCE700BFFEFF0700002002407A
:10525000044B5A69002ABFBF034A9A6002F18832A0
:105260009A6070470020024023016745024A536953
:1052700043F00043536170470020024030B585B0D1
:1052800010F47F4F0190C0F30725C0F307420DD102
:1052900009B1314B9A5C13461146002063F30700B5
:1052A00061F30F2062F3174005B030BD9DF8044054
:1052B000002939D0284B995C04EB4400FF234000BF
:1052C000B0FBF3F06FF05403434303EB440303EBF1
:1052D0004303DBB215FB03F4C3F1FF036B4324125A
:1052E0001B12C5F1FF02C4F1FF04C3F1FF034A43DF
:1052F0004C434B43C2F30722C4F30724C3F30723F1
:10530000C9B2062824D801A555F820F09B52000800
:105310002D530008335300083D530008475300083D
:10532000515300089B5200081146C5E70B46214621
:10533000B3E718460B4611460246AEE70B46114648
:105340001A462346A9E7184613460A460146A4E72B
:1053500013462246A1E700BF11CD000884B0012109
:1053600004B0FFF78BBF012830B501D8C0B230BD03
:10537000B0F5F75F9DBF42090832D2B2FF22012487
:10538000A3185910C3F34705C3F34F0313FB03F3EB
:105390009BB2834206D9013DEAB29442F0D9013C66
:1053A000E0B2E4E7FF2902D00135ECB2F5E70846A8
:1053B000DDE70000074B188800EB402200EB82007D
:1053C00000F55850193080B2188000EB1020C0B2A0
:1053D000704700BF360E0020410648BFC34310B5DA
:1053E0004CBFDAB202460D4CC2F3011204EB42018B
:1053F00048BF03F00F03497854BF00F00F03013397
:1054000011FB03F114F8123003EB2113DBB2020697
:1054100044BF5B42DBB283F0800010BDE2CC0008E9
:1054200084B001908DF80420019B0020DAB262F371
:105430000700C3F3072262F30F20C3F3074363F3AC
:10544000174004B0704700000C4B84B003EB4103DD
:10545000019093F866309B1A8DF80430019B002070
:10546000DAB262F30700C3F3072262F30F20C3F33B
:10547000074363F3174004B0704700BFB00C00202F
:105480000C4B84B003EB4103019093F867309B1AF7
:105490008DF80430019B0020DAB262F30700C3F3F9
:1054A000072262F30F20C3F3074363F3174004B0EE
:1054B000704700BFB00C002030B5134B85B03031C1
:1054C00003EB41040190E57903EB4103A5F12004CE
:1054D00064B29B79002CBCBFC5F120056CB29A1A4E
:1054E0002244C0B210448DF80400019B0020DAB2BF
:1054F00062F30700C3F3072262F30F20C3F30743ED
:1055000063F3174005B030BDB00C002084B003EB4E
:1055100043039DF81020019002EB53038DF80430F3
:10552000019B0020DAB262F30700C3F3072262F3A3
:105530000F20C3F3074363F3174004B070471FB550
:10554000019048B20028BCBF494248B25243C0F162
:10555000380010FB002080B21C46FFF704FF00EB70
:10556000400004448DF80440019B0020DAB262F34D
:105570000700C3F3072262F30F20C3F3074363F36B
:10558000174004B010BD000084B0019003F130005A
:10559000104B03EB4003D8799B79703B4B43203889
:1055A00002FB0032002A9DF80430B8BF7F3203EBC3
:1055B000E2138DF80430019B0020DAB262F3070099
:1055C000C3F3072262F30F20C3F3074363F31740CB
:1055D00004B07047B00C002084B0019003F130009B
:1055E000104B03EB4003D8799B79703B4B43203839
:1055F00002FB0032002A9DF80430B8BF3F3203EBB3
:10560000A2138DF80430019B0020DAB262F3070088
:10561000C3F3072262F30F20C3F3074363F317407A
:1056200004B07047B00C002084B0C9430190C9B2E7
:10563000C0F3074011FB00F109128DF80610019B21
:105640000020DAB262F30700C3F3072262F30F20EF
:10565000C3F3074363F3174004B0704784B003EB10
:105660008302BDF81030019013449BB2FF2B28BF7A
:10567000FF23C0F30740DB4350FA83F3FF2B28BF1F
:10568000FF238DF80630019B0020DAB262F3070099
:10569000C3F3072262F30F20C3F3074363F31740FA
:1056A00004B070471FB5482B0190C0F3074030D8B5
:1056B000BDF81840E31A9BB2FF2B28BFFF23083127
:1056C00089B2102905D902F1080189B2112928BF30
:1056D000FF231149DB4350FA83F3002A4978B8BF0E
:1056E0000332FF2B01EBA20228BFFF238DF8042019
:1056F0008DF80630019B0020DAB262F30700C3F395
:10570000072262F30F20C3F3074363F3174004B08B
:1057100010BDFF23D3E700BF1066002084B0C0F3A4
:105720000741BDF810200190D31A9BB2FF2B28BF70
:10573000FF23DBB2DA4351FA82F2FF2A28BFFF22AD
:1057400053FA80F08DF804008DF80620019B0020AC
:10575000DAB262F30700C3F3072262F30F20C3F348
:10576000074363F3174004B0704784B0BDF81020BE
:105770000190D21A92B2FF2A28BFFF22C0F307403D
:10578000D24350FA82F2FF2A28BFFF228DF806206A
:10579000019B0020DAB262F30700C3F3072262F331
:1057A0000F20C3F3074363F3174004B070470000B2
:1057B000024B1A7810431870704700BF0E1A002071
:1057C00010B5054C0548012308221C212370FFF762
:1057D00033FC0023237010BD0E1A00201066002039
:1057E000024610B9C90FC801704780EAE073A3EB05
:1057F000E073002918B201FA83F30CDB091A49019E
:1058000091FBF3F1C1F120014BB2D8B2002ABCBF29
:105810004042C0B270475B01401A93FBF0F3C3F102
:1058200060035BB2F1E730B585B0C0F30745019086
:105830009DF820001C1A1046FFF7D2FF2C44E4B25A
:10584000241AE4B214FB05F424128DF80640019BDF
:105850000020DAB262F30700C3F3072262F30F20DD
:10586000C3F3074363F3174005B030BD1FB5019084
:1058700010461C46FFF7B4FF03198DF80430019B56
:105880000020DAB262F30700C3F3072262F30F20AD
:10589000C3F3074363F3174004B010BD1FB5019075
:1058A0009DF818001C1A1046FFF79AFFE4B2241A5C
:1058B0008DF80440019B0020DAB262F30700C3F3C5
:1058C000072262F30F20C3F3074363F3174004B0CA
:1058D00010BD000008B5082203481C21FFF7CCF9D1
:1058E000024B00221A7008BD106600200E1A00201C
:1058F00084B004B0FFF732BD2DE9F74FDFF8D0A038
:1059000000EB00180AEB080307465B5CFF2B0E4612
:105910002BD02E4A0025904405EB051403F13009E5
:105920000AEB04014FF0000B14440AEB490911F88B
:1059300001CBBCF1FF0F0ED0E8B2874218D15FFA5D
:105940008BF0864214D118F806002030FF2828BFBB
:10595000FF2008F806000BF1010BBBF1110F04F159
:105960000104E4D10135062DD6D103B0BDE8F08F96
:105970000CF1300C0AEB4C0C99F806E09CF8060090
:105980009CF807C00191AEEB000E99F80700009358
:10599000A0EB0C000EFB0EFE00FB00E080B2FFF758
:1059A000E2FC2828009B0199084AD4D8C0F12800BD
:1059B00080B2102894F800C028BF10205CFA80F054
:1059C000FF2828BFFF202070C5E700BF421A002033
:1059D000B00C002010B5084C08492046152300F8EB
:1059E000013B032205F0EEFF4FF67F73A380BDE875
:1059F0001040FFF76FBF00BF1066002064C70008AB
:105A00000020704770B50E4615460446FFF7F8FFB4
:105A1000054B04EB041423449B5DFF2B1EBF2B544A
:105A20000130C0B270BD00BFB00C0020014BDB687C
:105A3000184700BFECCC000810B4034C6468A446BF
:105A40005DF8044B604700BFECCC00082DE9F04F37
:105A5000354BDFF8DC9004781D8899F8043004EBAE
:105A6000C4045B08640089B0E4B25D43C5F3072356
:105A700004F11206F6B202932C4B0391572EB34653
:105A8000804628BF4FF0570B03EB440703F58A7A93
:105A9000E3B29B4506D8562E8CBF0020012009B0EA
:105AA000BDE8F08F1AF8042098F801301A4237D078
:105AB00097F8663097F86700703B99B220385B43DF
:105AC00082B200FB003080B205910492FFF74BFCDC
:105AD000029A009299F801C099F803E0049A059996
